{
  "contractName": "rDAIRelayHub",
  "abi": [
    {
      "anonymous": false,
      "inputs": [
        {
          "indexed": true,
          "internalType": "address",
          "name": "relay",
          "type": "address"
        },
        {
          "indexed": true,
          "internalType": "address",
          "name": "from",
          "type": "address"
        },
        {
          "indexed": true,
          "internalType": "address",
          "name": "to",
          "type": "address"
        },
        {
          "indexed": false,
          "internalType": "bytes4",
          "name": "selector",
          "type": "bytes4"
        },
        {
          "indexed": false,
          "internalType": "uint256",
          "name": "reason",
          "type": "uint256"
        }
      ],
      "name": "CanRelayFailed",
      "type": "event"
    },
    {
      "anonymous": false,
      "inputs": [
        {
          "indexed": true,
          "internalType": "address",
          "name": "recipient",
          "type": "address"
        },
        {
          "indexed": true,
          "internalType": "address",
          "name": "from",
          "type": "address"
        },
        {
          "indexed": false,
          "internalType": "uint256",
          "name": "amount",
          "type": "uint256"
        }
      ],
      "name": "Deposited",
      "type": "event"
    },
    {
      "anonymous": false,
      "inputs": [
        {
          "indexed": true,
          "internalType": "address",
          "name": "relay",
          "type": "address"
        },
        {
          "indexed": false,
          "internalType": "address",
          "name": "sender",
          "type": "address"
        },
        {
          "indexed": false,
          "internalType": "uint256",
          "name": "amount",
          "type": "uint256"
        }
      ],
      "name": "Penalized",
      "type": "event"
    },
    {
      "anonymous": false,
      "inputs": [
        {
          "indexed": true,
          "internalType": "address",
          "name": "relay",
          "type": "address"
        },
        {
          "indexed": true,
          "internalType": "address",
          "name": "owner",
          "type": "address"
        },
        {
          "indexed": false,
          "internalType": "uint256",
          "name": "transactionFee",
          "type": "uint256"
        },
        {
          "indexed": false,
          "internalType": "uint256",
          "name": "stake",
          "type": "uint256"
        },
        {
          "indexed": false,
          "internalType": "uint256",
          "name": "unstakeDelay",
          "type": "uint256"
        },
        {
          "indexed": false,
          "internalType": "string",
          "name": "url",
          "type": "string"
        }
      ],
      "name": "RelayAdded",
      "type": "event"
    },
    {
      "anonymous": false,
      "inputs": [
        {
          "indexed": true,
          "internalType": "address",
          "name": "relay",
          "type": "address"
        },
        {
          "indexed": false,
          "internalType": "uint256",
          "name": "unstakeTime",
          "type": "uint256"
        }
      ],
      "name": "RelayRemoved",
      "type": "event"
    },
    {
      "anonymous": false,
      "inputs": [
        {
          "indexed": true,
          "internalType": "address",
          "name": "relay",
          "type": "address"
        },
        {
          "indexed": false,
          "internalType": "uint256",
          "name": "stake",
          "type": "uint256"
        },
        {
          "indexed": false,
          "internalType": "uint256",
          "name": "unstakeDelay",
          "type": "uint256"
        }
      ],
      "name": "Staked",
      "type": "event"
    },
    {
      "anonymous": false,
      "inputs": [
        {
          "indexed": true,
          "internalType": "address",
          "name": "relay",
          "type": "address"
        },
        {
          "indexed": true,
          "internalType": "address",
          "name": "from",
          "type": "address"
        },
        {
          "indexed": true,
          "internalType": "address",
          "name": "to",
          "type": "address"
        },
        {
          "indexed": false,
          "internalType": "bytes4",
          "name": "selector",
          "type": "bytes4"
        },
        {
          "indexed": false,
          "internalType": "enum IRelayHub.RelayCallStatus",
          "name": "status",
          "type": "uint8"
        },
        {
          "indexed": false,
          "internalType": "uint256",
          "name": "charge",
          "type": "uint256"
        }
      ],
      "name": "TransactionRelayed",
      "type": "event"
    },
    {
      "anonymous": false,
      "inputs": [
        {
          "indexed": true,
          "internalType": "address",
          "name": "relay",
          "type": "address"
        },
        {
          "indexed": false,
          "internalType": "uint256",
          "name": "stake",
          "type": "uint256"
        }
      ],
      "name": "Unstaked",
      "type": "event"
    },
    {
      "anonymous": false,
      "inputs": [
        {
          "indexed": true,
          "internalType": "address",
          "name": "account",
          "type": "address"
        },
        {
          "indexed": true,
          "internalType": "address",
          "name": "dest",
          "type": "address"
        },
        {
          "indexed": false,
          "internalType": "uint256",
          "name": "amount",
          "type": "uint256"
        }
      ],
      "name": "Withdrawn",
      "type": "event"
    },
    {
      "constant": true,
      "inputs": [
        {
          "internalType": "address",
          "name": "target",
          "type": "address"
        }
      ],
      "name": "balanceOf",
      "outputs": [
        {
          "internalType": "uint256",
          "name": "",
          "type": "uint256"
        }
      ],
      "payable": false,
      "stateMutability": "view",
      "type": "function"
    },
    {
      "constant": true,
      "inputs": [
        {
          "internalType": "address",
          "name": "relay",
          "type": "address"
        },
        {
          "internalType": "address",
          "name": "from",
          "type": "address"
        },
        {
          "internalType": "address",
          "name": "to",
          "type": "address"
        },
        {
          "internalType": "bytes",
          "name": "encodedFunction",
          "type": "bytes"
        },
        {
          "internalType": "uint256",
          "name": "transactionFee",
          "type": "uint256"
        },
        {
          "internalType": "uint256",
          "name": "gasPrice",
          "type": "uint256"
        },
        {
          "internalType": "uint256",
          "name": "gasLimit",
          "type": "uint256"
        },
        {
          "internalType": "uint256",
          "name": "nonce",
          "type": "uint256"
        },
        {
          "internalType": "bytes",
          "name": "signature",
          "type": "bytes"
        },
        {
          "internalType": "bytes",
          "name": "approvalData",
          "type": "bytes"
        }
      ],
      "name": "canRelay",
      "outputs": [
        {
          "internalType": "uint256",
          "name": "status",
          "type": "uint256"
        },
        {
          "internalType": "bytes",
          "name": "recipientContext",
          "type": "bytes"
        }
      ],
      "payable": false,
      "stateMutability": "view",
      "type": "function"
    },
    {
      "constant": true,
      "inputs": [
        {
          "internalType": "address",
          "name": "relay",
          "type": "address"
        }
      ],
      "name": "canUnstake",
      "outputs": [
        {
          "internalType": "bool",
          "name": "",
          "type": "bool"
        }
      ],
      "payable": false,
      "stateMutability": "view",
      "type": "function"
    },
    {
      "constant": false,
      "inputs": [
        {
          "internalType": "address",
          "name": "target",
          "type": "address"
        }
      ],
      "name": "depositFor",
      "outputs": [],
      "payable": true,
      "stateMutability": "payable",
      "type": "function"
    },
    {
      "constant": true,
      "inputs": [
        {
          "internalType": "address",
          "name": "from",
          "type": "address"
        }
      ],
      "name": "getNonce",
      "outputs": [
        {
          "internalType": "uint256",
          "name": "",
          "type": "uint256"
        }
      ],
      "payable": false,
      "stateMutability": "view",
      "type": "function"
    },
    {
      "constant": true,
      "inputs": [
        {
          "internalType": "address",
          "name": "relay",
          "type": "address"
        }
      ],
      "name": "getRelay",
      "outputs": [
        {
          "internalType": "uint256",
          "name": "totalStake",
          "type": "uint256"
        },
        {
          "internalType": "uint256",
          "name": "unstakeDelay",
          "type": "uint256"
        },
        {
          "internalType": "uint256",
          "name": "unstakeTime",
          "type": "uint256"
        },
        {
          "internalType": "address payable",
          "name": "owner",
          "type": "address"
        },
        {
          "internalType": "enum IRelayHub.RelayState",
          "name": "state",
          "type": "uint8"
        }
      ],
      "payable": false,
      "stateMutability": "view",
      "type": "function"
    },
    {
      "constant": true,
      "inputs": [
        {
          "internalType": "uint256",
          "name": "relayedCallStipend",
          "type": "uint256"
        },
        {
          "internalType": "uint256",
          "name": "gasPrice",
          "type": "uint256"
        },
        {
          "internalType": "uint256",
          "name": "transactionFee",
          "type": "uint256"
        }
      ],
      "name": "maxPossibleCharge",
      "outputs": [
        {
          "internalType": "uint256",
          "name": "",
          "type": "uint256"
        }
      ],
      "payable": false,
      "stateMutability": "view",
      "type": "function"
    },
    {
      "constant": false,
      "inputs": [
        {
          "internalType": "bytes",
          "name": "unsignedTx",
          "type": "bytes"
        },
        {
          "internalType": "bytes",
          "name": "signature",
          "type": "bytes"
        }
      ],
      "name": "penalizeIllegalTransaction",
      "outputs": [],
      "payable": false,
      "stateMutability": "nonpayable",
      "type": "function"
    },
    {
      "constant": false,
      "inputs": [
        {
          "internalType": "bytes",
          "name": "unsignedTx1",
          "type": "bytes"
        },
        {
          "internalType": "bytes",
          "name": "signature1",
          "type": "bytes"
        },
        {
          "internalType": "bytes",
          "name": "unsignedTx2",
          "type": "bytes"
        },
        {
          "internalType": "bytes",
          "name": "signature2",
          "type": "bytes"
        }
      ],
      "name": "penalizeRepeatedNonce",
      "outputs": [],
      "payable": false,
      "stateMutability": "nonpayable",
      "type": "function"
    },
    {
      "constant": false,
      "inputs": [
        {
          "internalType": "address",
          "name": "recipient",
          "type": "address"
        },
        {
          "internalType": "bytes",
          "name": "encodedFunctionWithFrom",
          "type": "bytes"
        },
        {
          "internalType": "uint256",
          "name": "transactionFee",
          "type": "uint256"
        },
        {
          "internalType": "uint256",
          "name": "gasPrice",
          "type": "uint256"
        },
        {
          "internalType": "uint256",
          "name": "gasLimit",
          "type": "uint256"
        },
        {
          "internalType": "uint256",
          "name": "preChecksGas",
          "type": "uint256"
        },
        {
          "internalType": "bytes",
          "name": "recipientContext",
          "type": "bytes"
        }
      ],
      "name": "recipientCallsAtomic",
      "outputs": [
        {
          "internalType": "enum IRelayHub.RelayCallStatus",
          "name": "",
          "type": "uint8"
        }
      ],
      "payable": false,
      "stateMutability": "nonpayable",
      "type": "function"
    },
    {
      "constant": false,
      "inputs": [
        {
          "internalType": "uint256",
          "name": "transactionFee",
          "type": "uint256"
        },
        {
          "internalType": "string",
          "name": "url",
          "type": "string"
        }
      ],
      "name": "registerRelay",
      "outputs": [],
      "payable": false,
      "stateMutability": "nonpayable",
      "type": "function"
    },
    {
      "constant": false,
      "inputs": [
        {
          "internalType": "address",
          "name": "from",
          "type": "address"
        },
        {
          "internalType": "address",
          "name": "recipient",
          "type": "address"
        },
        {
          "internalType": "bytes",
          "name": "encodedFunction",
          "type": "bytes"
        },
        {
          "internalType": "uint256",
          "name": "transactionFee",
          "type": "uint256"
        },
        {
          "internalType": "uint256",
          "name": "gasPrice",
          "type": "uint256"
        },
        {
          "internalType": "uint256",
          "name": "gasLimit",
          "type": "uint256"
        },
        {
          "internalType": "uint256",
          "name": "nonce",
          "type": "uint256"
        },
        {
          "internalType": "bytes",
          "name": "signature",
          "type": "bytes"
        },
        {
          "internalType": "bytes",
          "name": "approvalData",
          "type": "bytes"
        }
      ],
      "name": "relayCall",
      "outputs": [],
      "payable": false,
      "stateMutability": "nonpayable",
      "type": "function"
    },
    {
      "constant": false,
      "inputs": [
        {
          "internalType": "address",
          "name": "relay",
          "type": "address"
        }
      ],
      "name": "removeRelayByOwner",
      "outputs": [],
      "payable": false,
      "stateMutability": "nonpayable",
      "type": "function"
    },
    {
      "constant": true,
      "inputs": [
        {
          "internalType": "uint256",
          "name": "relayedCallStipend",
          "type": "uint256"
        }
      ],
      "name": "requiredGas",
      "outputs": [
        {
          "internalType": "uint256",
          "name": "",
          "type": "uint256"
        }
      ],
      "payable": false,
      "stateMutability": "view",
      "type": "function"
    },
    {
      "constant": false,
      "inputs": [
        {
          "internalType": "address",
          "name": "relay",
          "type": "address"
        },
        {
          "internalType": "uint256",
          "name": "unstakeDelay",
          "type": "uint256"
        }
      ],
      "name": "stake",
      "outputs": [],
      "payable": true,
      "stateMutability": "payable",
      "type": "function"
    },
    {
      "constant": false,
      "inputs": [
        {
          "internalType": "address",
          "name": "relay",
          "type": "address"
        }
      ],
      "name": "unstake",
      "outputs": [],
      "payable": false,
      "stateMutability": "nonpayable",
      "type": "function"
    },
    {
      "constant": true,
      "inputs": [],
      "name": "version",
      "outputs": [
        {
          "internalType": "string",
          "name": "",
          "type": "string"
        }
      ],
      "payable": false,
      "stateMutability": "view",
      "type": "function"
    },
    {
      "constant": false,
      "inputs": [
        {
          "internalType": "uint256",
          "name": "amount",
          "type": "uint256"
        },
        {
          "internalType": "address payable",
          "name": "dest",
          "type": "address"
        }
      ],
      "name": "withdraw",
      "outputs": [],
      "payable": false,
      "stateMutability": "nonpayable",
      "type": "function"
    },
    {
      "constant": false,
      "inputs": [
        {
          "internalType": "address",
          "name": "target",
          "type": "address"
        },
        {
          "internalType": "contract IRToken",
          "name": "rDai",
          "type": "address"
        },
        {
          "internalType": "contract IERC20",
          "name": "dai",
          "type": "address"
        },
        {
          "internalType": "contract KyberNetworkInterface",
          "name": "kyber",
          "type": "address"
        }
      ],
      "name": "refuelFor",
      "outputs": [],
      "payable": false,
      "stateMutability": "nonpayable",
      "type": "function"
    }
  ],
  "bytecode": "0x60c0604052600560808190527f312e302e3000000000000000000000000000000000000000000000000000000060a09081526200004091600391906200007b565b50600480546001600160a01b03191673eeeeeeeeeeeeeeeeeeeeeeeeeeeeeeeeeeeeeeee1790553480156200007457600080fd5b5062000120565b828054600181600116156101000203166002900490600052602060002090601f016020900481019282601f10620000be57805160ff1916838001178555620000ee565b82800160010185558215620000ee579182015b82811115620000ee578251825591602001919060010190620000d1565b50620000fc92915062000100565b5090565b6200011d91905b80821115620000fc576000815560010162000107565b90565b6141a380620001306000396000f3fe6080604052600436106101135760003560e01c80636a7d84a4116100a0578063a8cd957211610064578063a8cd957214610b30578063aa67c91914610d70578063adc9772e14610d96578063c3e712f214610dc2578063f2888dbb14610df557610113565b80636a7d84a4146109d157806370a08231146109fb57806385f4498b14610a2e5780638d85146014610a75578063a863f8f914610afa57610113565b80632ca70eba116100e75780632ca70eba146104ca5780632d0335ab146105df5780633900243214610624578063405cec671461075a57806354fd4d501461094757610113565b8062f714ce146101185780631166073a146101535780631d8f76f61461020b5780632b60174714610256575b600080fd5b34801561012457600080fd5b506101516004803603604081101561013b57600080fd5b50803590602001356001600160a01b0316610e28565b005b34801561015f57600080fd5b506101516004803603604081101561017657600080fd5b81359190810190604081016020820135600160201b81111561019757600080fd5b8201836020820111156101a957600080fd5b803590602001918460018302840111600160201b831117156101ca57600080fd5b91908080601f016020809104026020016040519081016040528093929190818152602001838380828437600092019190915250929550610f1f945050505050565b34801561021757600080fd5b506101516004803603608081101561022e57600080fd5b506001600160a01b0381358116916020810135821691604082013581169160600135166111ce565b34801561026257600080fd5b5061044b600480360361014081101561027a57600080fd5b6001600160a01b0382358116926020810135821692604082013590921691810190608081016060820135600160201b8111156102b557600080fd5b8201836020820111156102c757600080fd5b803590602001918460018302840111600160201b831117156102e857600080fd5b91908080601f016020809104026020016040519081016040528093929190818152602001838380828437600092019190915250929584359560208601359560408101359550606081013594509192509060a081019060800135600160201b81111561035257600080fd5b82018360208201111561036457600080fd5b803590602001918460018302840111600160201b8311171561038557600080fd5b91908080601f0160208091040260200160405190810160405280939291908181526020018383808284376000920191909152509295949360208101935035915050600160201b8111156103d757600080fd5b8201836020820111156103e957600080fd5b803590602001918460018302840111600160201b8311171561040a57600080fd5b91908080601f016020809104026020016040519081016040528093929190818152602001838380828437600092019190915250929550611707945050505050565b6040518083815260200180602001828103825283818151815260200191508051906020019080838360005b8381101561048e578181015183820152602001610476565b50505050905090810190601f1680156104bb5780820380516001836020036101000a031916815260200191505b50935050505060405180910390f35b3480156104d657600080fd5b506105bb600480360360e08110156104ed57600080fd5b6001600160a01b038235169190810190604081016020820135600160201b81111561051757600080fd5b82018360208201111561052957600080fd5b803590602001918460018302840111600160201b8311171561054a57600080fd5b9193909282359260208101359260408201359260608301359260a081019060800135600160201b81111561057d57600080fd5b82018360208201111561058f57600080fd5b803590602001918460018302840111600160201b831117156105b057600080fd5b509092509050611c76565b604051808260048111156105cb57fe5b60ff16815260200191505060405180910390f35b3480156105eb57600080fd5b506106126004803603602081101561060257600080fd5b50356001600160a01b0316612089565b60408051918252519081900360200190f35b34801561063057600080fd5b506101516004803603604081101561064757600080fd5b810190602081018135600160201b81111561066157600080fd5b82018360208201111561067357600080fd5b803590602001918460018302840111600160201b8311171561069457600080fd5b91908080601f0160208091040260200160405190810160405280939291908181526020018383808284376000920191909152509295949360208101935035915050600160201b8111156106e657600080fd5b8201836020820111156106f857600080fd5b803590602001918460018302840111600160201b8311171561071957600080fd5b91908080601f0160208091040260200160405190810160405280939291908181526020018383808284376000920191909152509295506120a8945050505050565b34801561076657600080fd5b50610151600480360361012081101561077e57600080fd5b6001600160a01b038235811692602081013590911691810190606081016040820135600160201b8111156107b157600080fd5b8201836020820111156107c357600080fd5b803590602001918460018302840111600160201b831117156107e457600080fd5b91908080601f016020809104026020016040519081016040528093929190818152602001838380828437600092019190915250929584359560208601359560408101359550606081013594509192509060a081019060800135600160201b81111561084e57600080fd5b82018360208201111561086057600080fd5b803590602001918460018302840111600160201b8311171561088157600080fd5b91908080601f0160208091040260200160405190810160405280939291908181526020018383808284376000920191909152509295949360208101935035915050600160201b8111156108d357600080fd5b8201836020820111156108e557600080fd5b803590602001918460018302840111600160201b8311171561090657600080fd5b91908080601f0160208091040260200160405190810160405280939291908181526020018383808284376000920191909152509295506121fa945050505050565b34801561095357600080fd5b5061095c6128b4565b6040805160208082528351818301528351919283929083019185019080838360005b8381101561099657818101518382015260200161097e565b50505050905090810190601f1680156109c35780820380516001836020036101000a031916815260200191505b509250505060405180910390f35b3480156109dd57600080fd5b50610612600480360360208110156109f457600080fd5b5035612942565b348015610a0757600080fd5b5061061260048036036020811015610a1e57600080fd5b50356001600160a01b031661294a565b348015610a3a57600080fd5b50610a6160048036036020811015610a5157600080fd5b50356001600160a01b0316612965565b604080519115158252519081900360200190f35b348015610a8157600080fd5b50610aa860048036036020811015610a9857600080fd5b50356001600160a01b03166129b0565b60405180868152602001858152602001848152602001836001600160a01b03166001600160a01b03168152602001826003811115610ae257fe5b60ff1681526020019550505050505060405180910390f35b348015610b0657600080fd5b5061061260048036036060811015610b1d57600080fd5b50803590602081013590604001356129f4565b348015610b3c57600080fd5b5061015160048036036080811015610b5357600080fd5b810190602081018135600160201b811115610b6d57600080fd5b820183602082011115610b7f57600080fd5b803590602001918460018302840111600160201b83111715610ba057600080fd5b91908080601f0160208091040260200160405190810160405280939291908181526020018383808284376000920191909152509295949360208101935035915050600160201b811115610bf257600080fd5b820183602082011115610c0457600080fd5b803590602001918460018302840111600160201b83111715610c2557600080fd5b91908080601f0160208091040260200160405190810160405280939291908181526020018383808284376000920191909152509295949360208101935035915050600160201b811115610c7757600080fd5b820183602082011115610c8957600080fd5b803590602001918460018302840111600160201b83111715610caa57600080fd5b91908080601f0160208091040260200160405190810160405280939291908181526020018383808284376000920191909152509295949360208101935035915050600160201b811115610cfc57600080fd5b820183602082011115610d0e57600080fd5b803590602001918460018302840111600160201b83111715610d2f57600080fd5b91908080601f016020809104026020016040519081016040528093929190818152602001838380828437600092019190915250929550612a11945050505050565b61015160048036036020811015610d8657600080fd5b50356001600160a01b0316612d03565b61015160048036036040811015610dac57600080fd5b506001600160a01b038135169060200135612dcb565b348015610dce57600080fd5b5061015160048036036020811015610de557600080fd5b50356001600160a01b03166131be565b348015610e0157600080fd5b5061015160048036036020811015610e1857600080fd5b50356001600160a01b0316613343565b33600081815260026020526040902054831115610e81576040805162461bcd60e51b8152602060048201526012602482015271696e73756666696369656e742066756e647360701b604482015290519081900360640190fd5b6001600160a01b0380821660009081526002602052604080822080548790039055519184169185156108fc0291869190818181858888f19350505050158015610ece573d6000803e3d6000fd5b50816001600160a01b0316816001600160a01b03167fd1c19fbcd4551a5edfb66d43d2e337c04837afda3482b42bdf569a8fccdae5fb856040518082815260200191505060405180910390a3505050565b33328114610f5e5760405162461bcd60e51b815260040180806020018281038252602381526020018061414c6023913960400191505060405180910390fd5b60016001600160a01b0382166000908152600160205260409020600390810154600160a01b900460ff1690811115610f9257fe5b1480610fcf575060026001600160a01b0382166000908152600160205260409020600390810154600160a01b900460ff1690811115610fcd57fe5b145b611018576040805162461bcd60e51b815260206004820152601560248201527477726f6e6720737461746520666f72207374616b6560581b604482015290519081900360640190fd5b67016345785d8a0000816001600160a01b031631101561107f576040805162461bcd60e51b815260206004820152601a60248201527f62616c616e6365206c6f776572207468616e206d696e696d756d000000000000604482015290519081900360640190fd5b60026001600160a01b0382166000908152600160205260409020600390810154600160a01b900460ff16908111156110b357fe5b146110e5576001600160a01b0381166000908152600160205260409020600301805460ff60a01b1916600160a11b1790555b6001600160a01b03808216600081815260016020818152604080842060038101548154919094015482518b81528085018390529283018190526080606084018181528b51918501919091528a5195909816977f85b3ae3aae9d3fcb31142fbd8c3b4722d57825b8edd6e1366e69204afa5a0dfa968c96939592948c94909360a085019290860191908190849084905b8381101561118c578181015183820152602001611174565b50505050905090810190601f1680156111b95780820380516001836020036101000a031916815260200191505b509550505050505060405180910390a3505050565b60408051633401f19160e21b8152306004820181905291516000916001600160a01b0387169163d007c6449160248082019260209290919082900301818787803b15801561121b57600080fd5b505af115801561122f573d6000803e3d6000fd5b505050506040513d602081101561124557600080fd5b50519050806112855760405162461bcd60e51b815260040180806020018281038252602a8152602001806140fd602a913960400191505060405180910390fd5b6000856001600160a01b0316632f4350c26040518163ffffffff1660e01b8152600401602060405180830381600087803b1580156112c257600080fd5b505af11580156112d6573d6000803e3d6000fd5b505050506040513d60208110156112ec57600080fd5b505190508061132c5760405162461bcd60e51b815260040180806020018281038252603281526020018061406a6032913960400191505060405180910390fd5b6000856001600160a01b03166370a08231856040518263ffffffff1660e01b815260040180826001600160a01b03166001600160a01b0316815260200191505060206040518083038186803b15801561138457600080fd5b505afa158015611398573d6000803e3d6000fd5b505050506040513d60208110156113ae57600080fd5b50516040805163095ea7b360e01b81526001600160a01b0388811660048301526024820184905291519293509088169163095ea7b3916044808201926020929091908290030181600087803b15801561140657600080fd5b505af115801561141a573d6000803e3d6000fd5b505050506040513d602081101561143057600080fd5b5050600480546040805163809a9e5560e01b81526001600160a01b038a811694820194909452918316602483015260448201849052805160009389169263809a9e55926064808301939192829003018186803b15801561148f57600080fd5b505afa1580156114a3573d6000803e3d6000fd5b505050506040513d60408110156114b957600080fd5b8101908080519060200190929190805190602001909291905050505090506000866001600160a01b031663088322ef878a86600460009054906101000a90046001600160a01b03168b60001989600080604051602001808281526020019150506040516020818303038152906040526040518a63ffffffff1660e01b8152600401808a6001600160a01b03166001600160a01b03168152602001896001600160a01b03166001600160a01b03168152602001888152602001876001600160a01b03166001600160a01b03168152602001866001600160a01b03166001600160a01b03168152602001858152602001848152602001836001600160a01b03166001600160a01b0316815260200180602001828103825283818151815260200191508051906020019080838360005b838110156115fe5781810151838201526020016115e6565b50505050905090810190601f16801561162b5780820380516001836020036101000a031916815260200191505b509a5050505050505050505050602060405180830381600087803b15801561165257600080fd5b505af1158015611666573d6000803e3d6000fd5b505050506040513d602081101561167c57600080fd5b50516001600160a01b038b166000908152600260205260409020549091506116aa908263ffffffff61349d16565b6001600160a01b038b16600081815260026020908152604091829020939093558051848152905133937f8752a472e571a816aea92eec8dae9baf628e840f4929fbcc2d155e6233ff68a7928290030190a350505050505050505050565b60006060808b8b8b8b8b8b8b3060405160200180806339363c1d60e11b815250600401896001600160a01b03166001600160a01b031660601b8152601401886001600160a01b03166001600160a01b031660601b815260140187805190602001908083835b6020831061178b5780518252601f19909201916020918201910161176c565b6001836020036101000a038019825116818451168082178552505050505050905001868152602001858152602001848152602001838152602001826001600160a01b03166001600160a01b031660601b81526014019850505050505050505060405160208183030381529060405290506000818e6040516020018083805190602001908083835b602083106118315780518252601f199092019160209182019101611812565b6001836020036101000a038019825116818451168082178552505050505050905001826001600160a01b03166001600160a01b031660601b8152601401925050506040516020818303038152906040528051906020012090508c6001600160a01b03166118ad876118a1846134fe565b9063ffffffff61354f16565b6001600160a01b0316146118d857600160405180602001604052806000815250935093505050611c67565b50506001600160a01b038b166000908152602081905260409020548514611912575050604080516020810190915260008152600290611c67565b600061191f87898b6129f4565b905060608b6001600160a01b03166383947ea0905060e01b8e8e8d8d8d8d8d8c8a604051602401808a6001600160a01b03166001600160a01b03168152602001896001600160a01b03166001600160a01b03168152602001806020018881526020018781526020018681526020018581526020018060200184815260200183810383528a818151815260200191508051906020019080838360005b838110156119d25781810151838201526020016119ba565b50505050905090810190601f1680156119ff5780820380516001836020036101000a031916815260200191505b50838103825285518152855160209182019187019080838360005b83811015611a32578181015183820152602001611a1a565b50505050905090810190601f168015611a5f5780820380516001836020036101000a031916815260200191505b509b505050505050505050505050604051602081830303815290604052906001600160e01b0319166020820180516001600160e01b0383818316178352505050509050600060608d6001600160a01b031661c350846040518082805190602001908083835b60208310611ae35780518252601f199092019160209182019101611ac4565b6001836020036101000a0380198251168184511680821785525050505050509050019150506000604051808303818686fa925050503d8060008114611b44576040519150601f19603f3d011682016040523d82523d6000602084013e611b49565b606091505b509150915081611b735760035b604051806020016040528060008152509550955050505050611c67565b808060200190516040811015611b8857600080fd5b815160208301805160405192949293830192919084600160201b821115611bae57600080fd5b908301906020820185811115611bc357600080fd5b8251600160201b811182820188101715611bdc57600080fd5b82525081516020918201929091019080838360005b83811015611c09578181015183820152602001611bf1565b50505050905090810190601f168015611c365780820380516001836020036101000a031916815260200191505b5060405250929850909650508615905080611c515750600a86115b15611c605750611c6792505050565b6004611b56565b9a509a98505050505050505050565b6000611c80613fe9565b5a8152333014611cc15760405162461bcd60e51b815260040180806020018281038252602781526020018061409c6027913960400191505060405180910390fd5b6001600160a01b038b166000908152600260209081526040918290205483820152905160248101918252604481018590526060916380274db760e01b91879187918190606401848480828437600081840152601f19601f8201169050808301925050509350505050604051602081830303815290604052906001600160e01b0319166020820180516001600160e01b0383818316178352505050509050600060608d6001600160a01b0316620186a0846040518082805190602001908083835b60208310611da05780518252601f199092019160209182019101611d81565b6001836020036101000a03801982511681845116808217855250505050505090500191505060006040518083038160008787f1925050503d8060008114611e03576040519150601f19603f3d011682016040523d82523d6000602084013e611e08565b606091505b509150915081611e1c57611e1c600261363d565b808060200190516020811015611e3157600080fd5b5051604080860191909152516001600160a01b038f1693508992508d91508c908083838082843760405192019450600093509091505080830381838787f1925050503d8060008114611e9f576040519150601f19603f3d011682016040523d82523d6000602084013e611ea4565b606091505b505015156060808301919091526000611ecd611ec65a85518a01036001613679565b8a8c613699565b90508c6001600160a01b031663e06e0e22905060e01b868685606001518487604001516040516024018080602001851515151581526020018481526020018381526020018281038252878782818152602001925080828437600081840152601f19601f8201169050808301925050509650505050505050604051602081830303815290604052906001600160e01b0319166020820180516001600160e01b03838183161783525050505091505060008c6001600160a01b0316620186a0836040518082805190602001908083835b60208310611fba5780518252601f199092019160209182019101611f9b565b6001836020036101000a03801982511681845116808217855250505050505090500191505060006040518083038160008787f1925050503d806000811461201d576040519150601f19603f3d011682016040523d82523d6000602084013e612022565b606091505b505090508061203557612035600361363d565b50506020808201516001600160a01b038d1660009081526002909252604090912054101561206757612067600461363d565b806060015161207757600161207a565b60005b9b9a5050505050505050505050565b6001600160a01b0381166000908152602081905260409020545b919050565b6120b0614010565b6120b9836136a7565b60608101519091506001600160a01b03163014156121675760006120e08260a001516136e1565b90506001600160e01b0319811663405cec6760e01b1480159061211457506001600160e01b031981166308b3039d60e11b14155b612165576040805162461bcd60e51b815260206004820152601760248201527f4c6567616c2072656c6179207472616e73616374696f6e000000000000000000604482015290519081900360640190fd5b505b60006121e983856040516020018082805190602001908083835b602083106121a05780518252601f199092019160209182019101612181565b6001836020036101000a0380198251168184511680821785525050505050509050019150506040516020818303038152906040528051906020012061354f90919063ffffffff16565b90506121f4816136ee565b50505050565b60005a90506002336000908152600160205260409020600390810154600160a01b900460ff169081111561222a57fe5b1461226c576040805162461bcd60e51b815260206004820152600d60248201526c556e6b6e6f776e2072656c617960981b604482015290519081900360640190fd5b3a8611156122b5576040805162461bcd60e51b8152602060048201526011602482015270496e76616c69642067617320707269636560781b604482015290519081900360640190fd5b6122c96122c186612942565b61bc4c613970565b811015612314576040805162461bcd60e51b81526020600482015260146024820152734e6f7420656e6f756768206761736c656674282960601b604482015290519081900360640190fd5b6001600160a01b03891660009081526002602052604090205461233886888a6129f4565b111561238b576040805162461bcd60e51b815260206004820152601960248201527f526563697069656e742062616c616e636520746f6f206c6f7700000000000000604482015290519081900360640190fd5b60006123988960006139b2565b9050606060006123b0338e8e8e8e8e8e8e8e8e611707565b925090508015612434578b6001600160a01b03168d6001600160a01b0316336001600160a01b03167fafb5afd6d1c2e8ffbfb480e674a169f493ece0b22658d4f4484e7334f0241e22868560405180836001600160e01b0319166001600160e01b03191681526020018281526020019250505060405180910390a4505050506128a9565b506001600160a01b038c16600090815260208190526040812080546001019055805a8503905060608c8f6040516020018083805190602001908083835b602083106124905780518252601f199092019160209182019101612471565b6001836020036101000a038019825116818451168082178552505050505050905001826001600160a01b03166001600160a01b031660601b81526014019250505060405160208183030381529060405290506060632ca70eba60e01b8f838f8f8f888b60405160240180886001600160a01b03166001600160a01b031681526020018060200187815260200186815260200185815260200184815260200180602001838103835289818151815260200191508051906020019080838360005b8381101561256757818101518382015260200161254f565b50505050905090810190601f1680156125945780820380516001836020036101000a031916815260200191505b50838103825284518152845160209182019186019080838360005b838110156125c75781810151838201526020016125af565b50505050905090810190601f1680156125f45780820380516001836020036101000a031916815260200191505b509950505050505050505050604051602081830303815290604052906001600160e01b0319166020820180516001600160e01b03838183161783525050505090506060306001600160a01b0316826040518082805190602001908083835b602083106126715780518252601f199092019160209182019101612652565b6001836020036101000a0380198251168184511680821785525050505050509050019150506000604051808303816000865af19150503d80600081146126d3576040519150601f19603f3d011682016040523d82523d6000602084013e6126d8565b606091505b509150508080602001905160208110156126f157600080fd5b5051945060009350612715925061270e9150505a87036000613679565b8b8d613699565b6001600160a01b038e1660009081526002602052604090205490915081111561277b576040805162461bcd60e51b815260206004820152601360248201527253686f756c64206e6f7420676574206865726560681b604482015290519081900360640190fd5b80600260008f6001600160a01b03166001600160a01b0316815260200190815260200160002060008282540392505081905550806002600060016000336001600160a01b03166001600160a01b0316815260200190815260200160002060030160009054906101000a90046001600160a01b03166001600160a01b03166001600160a01b03168152602001908152602001600020600082825401925050819055508c6001600160a01b03168e6001600160a01b0316336001600160a01b03167fab74390d395916d9e0006298d47938a5def5d367054dcca78fa6ec84381f3f2287868660405180846001600160e01b0319166001600160e01b031916815260200183600481111561288857fe5b60ff168152602001828152602001935050505060405180910390a450505050505b505050505050505050565b6003805460408051602060026001851615610100026000190190941693909304601f8101849004840282018401909252818152929183018282801561293a5780601f1061290f5761010080835404028352916020019161293a565b820191906000526020600020905b81548152906001019060200180831161291d57829003601f168201915b505050505081565b6206137c0190565b6001600160a01b031660009081526002602052604090205490565b6001600160a01b038116600090815260016020526040812060020154158015906129aa57506001600160a01b0382166000908152600160205260409020600201544210155b92915050565b6001600160a01b039081166000908152600160208190526040909120805491810154600282015460039092015492949093919291821691600160a01b900460ff1690565b6000612a09612a0285612942565b8484613699565b949350505050565b6000612a498486604051602001808280519060200190808383602083106121a05780518252601f199092019160209182019101612181565b90506000612a838385604051602001808280519060200190808383602083106121a05780518252601f199092019160209182019101612181565b9050806001600160a01b0316826001600160a01b031614612ade576040805162461bcd60e51b815260206004820152601060248201526f2234b33332b932b73a1039b4b3b732b960811b604482015290519081900360640190fd5b612ae6614010565b612aef876136a7565b9050612af9614010565b612b02866136a7565b8051835191925014612b4d576040805162461bcd60e51b815260206004820152600f60248201526e446966666572656e74206e6f6e636560881b604482015290519081900360640190fd5b60608260a001518360400151846060015185608001516040516020018085805190602001908083835b60208310612b955780518252601f199092019160209182019101612b76565b6001836020036101000a038019825116818451168082178552505050505050905001848152602001836001600160a01b03166001600160a01b031660601b8152601401828152602001945050505050604051602081830303815290604052905060608260a001518360400151846060015185608001516040516020018085805190602001908083835b60208310612c3d5780518252601f199092019160209182019101612c1e565b6001836020036101000a038019825116818451168082178552505050505050905001848152602001836001600160a01b03166001600160a01b031660601b81526014018281526020019450505050506040516020818303038152906040529050808051906020012082805190602001201415612cee576040805162461bcd60e51b815260206004820152600b60248201526a1d1e081a5cc8195c5d585b60aa1b604482015290519081900360640190fd5b612cf7866136ee565b50505050505050505050565b34671bc16d674ec80000811115612d53576040805162461bcd60e51b815260206004820152600f60248201526e6465706f73697420746f6f2062696760881b604482015290519081900360640190fd5b6001600160a01b038216600090815260026020526040902054612d76908261349d565b6001600160a01b038316600081815260026020908152604091829020939093558051848152905133937f8752a472e571a816aea92eec8dae9baf628e840f4929fbcc2d155e6233ff68a7928290030190a35050565b60006001600160a01b0383166000908152600160205260409020600390810154600160a01b900460ff1690811115612dff57fe5b1415612ea057336001600160a01b0383161415612e63576040805162461bcd60e51b815260206004820152601d60248201527f72656c61792063616e6e6f74207374616b6520666f7220697473656c66000000604482015290519081900360640190fd5b6001600160a01b038216600090815260016020526040902060030180546001600160a01b031916331760ff60a01b1916600160a01b179055612fbd565b60016001600160a01b0383166000908152600160205260409020600390810154600160a01b900460ff1690811115612ed457fe5b1480612f11575060026001600160a01b0383166000908152600160205260409020600390810154600160a01b900460ff1690811115612f0f57fe5b145b15612f78576001600160a01b03828116600090815260016020526040902060030154163314612f73576040805162461bcd60e51b81526020600482015260096024820152683737ba1037bbb732b960b91b604482015290519081900360640190fd5b612fbd565b6040805162461bcd60e51b815260206004820152601560248201527477726f6e6720737461746520666f72207374616b6560581b604482015290519081900360640190fd5b6001600160a01b03821660009081526001602052604090208054349081019182905590670de0b6b3a7640000111561303c576040805162461bcd60e51b815260206004820152601860248201527f7374616b65206c6f776572207468616e206d696e696d756d0000000000000000604482015290519081900360640190fd5b62093a80821015613094576040805162461bcd60e51b815260206004820152601860248201527f64656c6179206c6f776572207468616e206d696e696d756d0000000000000000604482015290519081900360640190fd5b626ebe008211156130ec576040805162461bcd60e51b815260206004820152601960248201527f64656c617920686967686572207468616e206d6178696d756d00000000000000604482015290519081900360640190fd5b6001600160a01b0383166000908152600160208190526040909120015482101561315d576040805162461bcd60e51b815260206004820181905260248201527f756e7374616b6544656c61792063616e6e6f7420626520646563726561736564604482015290519081900360640190fd5b6001600160a01b0383166000818152600160208181526040928390209182018690559054825190815290810185905281517f1449c6dd7851abc30abf37f57715f492010519147cc2652fbc38202c18a6ee90929181900390910190a2505050565b6001600160a01b0381811660009081526001602052604090206003015416331461321b576040805162461bcd60e51b81526020600482015260096024820152683737ba1037bbb732b960b91b604482015290519081900360640190fd5b60016001600160a01b0382166000908152600160205260409020600390810154600160a01b900460ff169081111561324f57fe5b148061328c575060026001600160a01b0382166000908152600160205260409020600390810154600160a01b900460ff169081111561328a57fe5b145b6132cf576040805162461bcd60e51b815260206004820152600f60248201526e185b1c9958591e481c995b5bdd9959608a1b604482015290519081900360640190fd5b6001600160a01b038116600081815260016020818152604092839020918201544201600283018190556003909201805460ff60a01b1916600360a01b179055825191825291517f5490afc1d818789c8b3d5d63bce3d2a3327d0bba4efb5a7751f783dc977d7d11929181900390910190a250565b61334c81612965565b613391576040805162461bcd60e51b815260206004820152601160248201527018d85b955b9cdd185ad94819985a5b1959607a1b604482015290519081900360640190fd5b6001600160a01b038181166000908152600160205260409020600301541633146133ee576040805162461bcd60e51b81526020600482015260096024820152683737ba1037bbb732b960b91b604482015290519081900360640190fd5b6001600160a01b038116600090815260016020819052604080832080548482559281018490556002810184905560030180546001600160a81b0319169055513392839183156108fc0291849190818181858888f19350505050158015613458573d6000803e3d6000fd5b506040805182815290516001600160a01b038516917f0f5bb82176feb1b5e747e28471aa92156a04d9f3ab9f45f28e2d704232b93f75919081900360200190a2505050565b6000828201838110156134f7576040805162461bcd60e51b815260206004820152601b60248201527f536166654d6174683a206164646974696f6e206f766572666c6f770000000000604482015290519081900360640190fd5b9392505050565b604080517f19457468657265756d205369676e6564204d6573736167653a0a333200000000602080830191909152603c8083019490945282518083039094018452605c909101909152815191012090565b60008151604114613562575060006129aa565b60208201516040830151606084015160001a7f7fffffffffffffffffffffffffffffff5d576e7357a4501ddfe92f46681b20a08211156135a857600093505050506129aa565b8060ff16601b141580156135c057508060ff16601c14155b156135d157600093505050506129aa565b6040805160008152602080820180845289905260ff8416828401526060820186905260808201859052915160019260a0808401939192601f1981019281900390910190855afa158015613628573d6000803e3d6000fd5b5050604051601f190151979650505050505050565b6060816040516020018082600481111561365357fe5b60ff16815260200191505060405160208183030381529060405290508051602082018181fd5b60008161368757600061368c565b62019a285b90920161bc4c0192915050565b606490810191909202020490565b6136af614010565b6136b882613a0a565b60a087015260808601526001600160a01b03166060850152604084015260208301528152919050565b60006129aa8260006139b2565b60016001600160a01b0382166000908152600160205260409020600390810154600160a01b900460ff169081111561372257fe5b148061375f575060026001600160a01b0382166000908152600160205260409020600390810154600160a01b900460ff169081111561375d57fe5b145b8061379b575060036001600160a01b0382166000908152600160205260409020600390810154600160a01b900460ff169081111561379957fe5b145b6137dd576040805162461bcd60e51b815260206004820152600e60248201526d556e7374616b65642072656c617960901b604482015290519081900360640190fd5b6001600160a01b03811660009081526001602052604081205490613802826002613ac4565b905060006138108383613970565b905060026001600160a01b0385166000908152600160205260409020600390810154600160a01b900460ff169081111561384657fe5b141561388c576040805142815290516001600160a01b038616917f5490afc1d818789c8b3d5d63bce3d2a3327d0bba4efb5a7751f783dc977d7d11919081900360200190a25b6001600160a01b038416600090815260016020819052604080832083815591820183905560028201839055600390910180546001600160a81b03191690555183156108fc0290849083818181858288f193505050501580156138f2573d6000803e3d6000fd5b506040513390819083156108fc029084906000818181858888f19350505050158015613922573d6000803e3d6000fd5b50604080516001600160a01b038381168252602082018590528251908816927fb0595266ccec357806b2691f348b128209f1060a0bda4f5c95f7090730351ff8928290030190a25050505050565b60006134f783836040518060400160405280601e81526020017f536166654d6174683a207375627472616374696f6e206f766572666c6f770000815250613b06565b600081600401835110156139f75760405162461bcd60e51b81526004018080602001828103825260258152602001806141276025913960400191505060405180910390fd5b5001602001516001600160e01b03191690565b6000806000806000606080613a26613a2189613b9d565b613be2565b9050613a4581600081518110613a3857fe5b6020026020010151613ce7565b613a5582600181518110613a3857fe5b613a6583600281518110613a3857fe5b613a8284600381518110613a7557fe5b6020026020010151613d15565b613a9285600481518110613a3857fe5b613aaf86600581518110613aa257fe5b6020026020010151613d64565b949d939c50919a509850965090945092505050565b60006134f783836040518060400160405280601a81526020017f536166654d6174683a206469766973696f6e206279207a65726f000000000000815250613dd1565b60008184841115613b955760405162461bcd60e51b81526004018080602001828103825283818151815260200191508051906020019080838360005b83811015613b5a578181015183820152602001613b42565b50505050905090810190601f168015613b875780820380516001836020036101000a031916815260200191505b509250505060405180910390fd5b505050900390565b613ba561404f565b8151613bc5575060408051808201909152600080825260208201526120a3565b506040805180820190915281518152602082810190820152919050565b6060613bed82613e36565b613c2e576040805162461bcd60e51b815260206004820152600d60248201526c1a5cd31a5cdd0819985a5b1959609a1b604482015290519081900360640190fd5b6000613c3983613e62565b905080604051908082528060200260200182016040528015613c7557816020015b613c6261404f565b815260200190600190039081613c5a5790505b5091506000613c878460200151613eaf565b60208501510190506000805b83811015613cde57613ca483613f18565b9150604051806040016040528083815260200184815250858281518110613cc757fe5b602090810291909101015291810191600101613c93565b50505050919050565b600080613cf78360200151613eaf565b83516020948501518201519190039093036101000a90920492915050565b6000601582600001511115613d5b5760405162461bcd60e51b815260040180806020018281038252603a8152602001806140c3603a913960400191505060405180910390fd5b6129aa82613ce7565b60606000613d758360200151613eaf565b83516040805191839003808352601f19601f8201168301602001909152919250606090828015613dac576020820181803883390190505b5090506000816020019050613dc8848760200151018285613fa8565b50949350505050565b60008183613e205760405162461bcd60e51b8152602060048201818152835160248401528351909283926044909101919085019080838360008315613b5a578181015183820152602001613b42565b506000838581613e2c57fe5b0495945050505050565b6020810151805160009190821a9060c0821015613e58576000925050506120a3565b5060019392505050565b600080600090506000613e788460200151613eaf565b602085015185519181019250015b80821015613ea657613e9782613f18565b60019093019290910190613e86565b50909392505050565b8051600090811a6080811015613ec95760009150506120a3565b60b8811080613ee4575060c08110801590613ee4575060f881105b15613ef35760019150506120a3565b60c0811015613f075760b5190190506120a3565b60f5190190506120a3565b50919050565b8051600090811a6080811015613f325760019150506120a3565b60b8811015613f4657607e190190506120a3565b60c0811015613f735760b78103600184019350806020036101000a84510460018201810193505050613f12565b60f8811015613f875760be190190506120a3565b60019290920151602083900360f7016101000a900490910160f51901919050565b5b60208110613fc8578251825260209283019290910190601f1901613fa9565b915181516020939093036101000a6000190180199091169216919091179052565b60408051608081018252600080825260208201819052918101829052606081019190915290565b6040518060c0016040528060008152602001600081526020016000815260200160006001600160a01b0316815260200160008152602001606081525090565b60405180604001604052806000815260200160008152509056fe4661696c656420746f2072656465656d20756e6465726c79696e67204441492066726f6d20696e74657265737420706169644f6e6c792052656c61794875622073686f756c642063616c6c20746869732066756e6374696f6e496e76616c696420524c504974656d2e204164647265737365732061726520656e636f64656420696e203230206279746573206f72206c6573734661696c656420746f20636c61696d20696e746572657374206561726e656420666f7220746172676574475245415445525f4f525f455155414c5f544f5f345f4c454e4754485f5245515549524544436f6e7472616374732063616e6e6f742072656769737465722061732072656c617973a265627a7a72315820d6a788ef51e9ca1ad7756b7d93df6ec8e8a61284fcabbf4f8dde734ad10e32c964736f6c634300050c0032",
  "source": "pragma solidity 0.5.12;\n\nimport \"@openzeppelin/contracts/math/SafeMath.sol\";\nimport \"@openzeppelin/contracts/token/ERC20/IERC20.sol\";\nimport \"./RelayHub.sol\";\nimport \"../rDAI/IRToken.sol\";\nimport \"../liquidity/KyberNetworkInterface.sol\";\n\ncontract rDAIRelayHub is RelayHub {\n    using SafeMath for uint256;\n\n    address ETH_PROXY = 0xEeeeeEeeeEeEeeEeEeEeeEEEeeeeEeeeeeeeEEeE;\n\n    function refuelFor(address target, IRToken rDai, IERC20 dai, KyberNetworkInterface kyber) external {\n        // 1. Claim earned rDAI interest\n        address self = address(this);\n        bool interestClaimSuccess = rDai.payInterest(self);\n        require(interestClaimSuccess, \"Failed to claim interest earned for target\");\n\n        // 2. Redeem underlying DAI from rDAI contract\n        bool redeemSuccess = rDai.redeemAll();\n        require(redeemSuccess, \"Failed to redeem underlying DAI from interest paid\");\n\n        // 3. TODO: Swap DAI for ETH\n        uint256 daiBalance = dai.balanceOf(self);\n        dai.approve(address(kyber), daiBalance);\n\n        (uint expectedDaiEthExhangeRate, ) = kyber.getExpectedRate(dai, IERC20(ETH_PROXY), daiBalance);\n        uint256 ethReceivedFromDaiSale = kyber.tradeWithHint(\n            self,\n            dai,\n            daiBalance,\n            IERC20(ETH_PROXY),\n            self,\n            2**256 - 1,\n            expectedDaiEthExhangeRate,\n            address(0),\n            abi.encodePacked(uint256(0))\n        );\n\n        // 4. Update target contract's relay balance\n        balances[target] = balances[target].add(ethReceivedFromDaiSale);\n\n        emit Deposited(target, msg.sender, ethReceivedFromDaiSale);\n    }\n}",
  "sourcePath": "/Users/Natalie/Projects/PleaseRelayMe/smart-contracts/contracts/relay/rDAIRelayHub.sol",
  "compiler": {
    "name": "solc",
    "version": "0.5.12+commit.7709ece9.Emscripten.clang"
  },
  "schemaVersion": "3.0.19",
  "updatedAt": "2020-01-27T14:36:21.716Z",
  "networkType": "ethereum",
  "devdoc": {
    "methods": {
      "relayCall(address,address,bytes,uint256,uint256,uint256,uint256,bytes,bytes)": {
        "params": {
          "approvalData": "dapp-specific data",
          "encodedFunction": "the function call to relay.",
          "from": "the client originating the request.",
          "gasLimit": "limit the client want to put on its transaction",
          "gasPrice": "gas price the client is willing to pay",
          "nonce": "sender's nonce (in nonces[])",
          "recipient": "the target IRelayRecipient contract.",
          "signature": "client's signature over all params except approvalData",
          "transactionFee": "fee (%) the relay takes over actual gas cost."
        }
      }
    }
  },
  "userdoc": {
    "methods": {
      "depositFor(address)": {
        "notice": "deposit ether for a contract. This ether will be used to repay relay calls into this contract. Contract owner should monitor the balance of his contract, and make sure to deposit more, otherwise the contract won't be able to receive relayed calls. Unused deposited can be withdrawn with `withdraw()`"
      },
      "relayCall(address,address,bytes,uint256,uint256,uint256,uint256,bytes,bytes)": {
        "notice": "Relay a transaction."
      },
      "withdraw(uint256,address)": {
        "notice": "withdraw funds. caller is either a relay owner, withdrawing collected transaction fees. or a IRelayRecipient contract, withdrawing its deposit. note that while everyone can `depositFor()` a contract, only the contract itself can withdraw its funds."
      }
    }
  }
}